:100000000C9495010C94C2010C94C6010C94D1017E
:100010000C9400000C9400000C9400000C94000060
:100020000C9400000C94DC010C9400000C94D6019C
:100030000C9400000C9400000C9400000C94000040
:100040000C9400000C9400000C9400000C94000030
:100050000C9400001027E80364000A00010000105F
:1000600000011000010000000000000000003F0639
:100070005B4F666D7D077F6F2F0020002D2564008C
:1000800043003A003E4F4E003E4F46460020627409
:100090006E323A53746F7000636C6F636B20006153
:1000A0006C61726D20002D2D3A2D2D002A3A646965
:1000B0007363617264233A7265736574005F003123
:1000C0003A636C6F636B20333A616C61726D002A26
:1000D0003A646973636172640020313A6F66660046
:1000E00020313A6F6E002A3A64697363617264204A
:1000F000233A736574005375636365737366756C37
:10010000792073657421006D696E3A00206D617805
:100110003A002A3A6469736361726420233A656421
:10012000697400303A6D696E2C20313A6D61780047
:100130006D696E3A20006D61783A20002A3A646950
:10014000736361726420233A73617665004D696E52
:100150002063616E2774206265006269676765725B
:10016000207468616E206D617821004D6178206394
:10017000616E277420626500736D616C6C6572201E
:100180007468616E206D696E2100626967676572CF
:10019000207468616E2031303000646174653A20EB
:1001A000002D2D2D2D2F2D2D2F2D2D002A3A646958
:1001B000736361726420233A72657365000080C0C6
:1001C00001002D4E414E00494E460000080004003B
:1001D00066000A0045046E0002006002780002001A
:1001E00062027800020064027A0002006602800067
:1001F00002006802820004006A02840005006E02A8
:1002000088000B0073028D0007007E029800070033
:1002100085029F0006008C02A60011009202AC002D
:100220000200A302BD000300A502A9000300A8026A
:10023000A9000600AB02A6001000B102BF000A0030
:10024000C102CF000700CB02D9000600D202E000B5
:100250001000D802E6000700E802D9000600EF020D
:10026000E0001100F502F600050006030701060094
:100270000B030C011100110312010100220379008C
:100280000D00230323010A003003CF0006003A03C8
:100290003001060040033601110046033C010D0009
:1002A00057034D01110064035A0111007503F60054
:1002B0000D0086036B011200930378010D00A50366
:1002C0006B011000B2038A011100C203F60007009F
:1002D000D3039A010B00DA03A1011100E503AC017D
:1002E0000200F603BD000100F80379000100F903E4
:1002F00079000300FA03A9000100FD03790003005F
:10030000FE03A90001000104790001000204790044
:100310000B000304A10111000E04F60002004F04BB
:10032000BE0101005304C0010000F894EE27ECBBAD
:10033000F1E0FBBFEBBFE5BF8DE0A2E0BB27ED9393
:100340008A95E9F780E098E0A0E6ED930197E9F758
:10035000ECECF1E085919591009761F0A591B59154
:1003600005901590BF01F00105900D920197E1F7FE
:10037000FB01F0CFEFE5EDBFE8E0EEBFC0E6D2E075
:100380000C94B608EA93E1E05E2E0EC00E94BA0B10
:10039000662021F066240E94C80B02C0E1E07E2E98
:1003A00027C0EA93E1E09E2EE99118950E94BA0BCE
:1003B00075D1EFE0E2BF1CC00E94BA0B96D11BD6EC
:1003C0000E94CE0B46D618D2662081F0F5013196F8
:1003D0005F01ECE3F0E0EA15FB0524F466240E94DB
:1003E000D20B04C0969A0E94D50B96980E94D90B06
:1003F000E991EFBFF991E991B991A9919991899109
:1004000079916991F990199009901895AA93E881CA
:10041000E7B98BE18A95F1F7369A349BFECF349A8F
:10042000E4B1F5B121960895EBB7E06EEBBFEAE0D9
:10043000E5BFE0E0E4BFE0EEEABFE5E0E9BFE3E00E
:10044000E3BFEFE0E2BF0E94DE0B0E94DE0BE0E0C4
:10045000E7B9E4E8E6B9E0E0E0BFA0E10E943C09CA
:10046000EEEFEABBE0EFE7BBEFEFE4BBE3EFE1BBAE
:10047000EFEFE2BBE8BBE1E0F0E0E0931F04F093B4
:100480002004E1E2F4E0A2E0B0E0A083B183E4E084
:10049000F0E00E94E30BE5E2F4E0A5E0B0E0A08329
:1004A000B1830E94E80B0E94EF0BE8E7F5E0E093D0
:1004B0002B04F0932C04E3E0F0E0E0932D04F093A0
:1004C0002E04E4E1F0E00E94F60BE2E1F0E0E093BC
:1004D0003104F0933204E9E1F0E0E0933304F09367
:1004E0003404E0E0E0933804E1E0F0E0E093390424
:1004F000F0933A04EBE3F4E0A3E0B0E0A083B1832F
:10050000E3E0F0E0E0933D04F0933E04EFE3F4E039
:100510000E94FB0B0E94000C0E94FB0B06D00E9465
:10052000090CA1E0B0E055D0089565970E940E0C2B
:10053000E0912B04F0912C040E94130C0E94180CE3
:100540000E9479090E941D0CA0E6B2E00E94680991
:10055000E0912D04F0912E040E94130C0E94180CBF
:100560000E94220CA2E6B2E00E946809E0912F04EA
:10057000F09130040E94130C0E94180C0E94220C6F
:10058000A4E6B2E00E946809E0913704E03029F067
:100590000E94250CECE7F0E004C00E94250CEDE77A
:1005A000F0E0FA93EA93E0913504F09136040E946A
:1005B000290CFE0135960E94130C0E94220CA6E61F
:1005C000B2E00E946809DE0115960E942B0965962B
:1005D0000895BA93AA936397E0913904F0913A048D
:1005E0000E94130C0E94320C0E947909E0913B0496
:1005F000F0913C040E94130C0E94320C0E94680986
:100600000E94370CA8E6B2E00E946809E0913D0420
:10061000F0913E040E94130C0E94320C0E94680963
:10062000E0913F04F09140040E94130C0E94320CB0
:100630000E946809662081F4E0913804E03029F0D6
:100640000E94370CAAE6B2E004C00E94370CAEE666
:10065000B2E00E9468090AC0662041F00E94370C8F
:10066000A3E7B2E00E9468090E94D50BAD89BE895C
:10067000AF3FEFEFBE0731F0AB89BC89AF3FEFEF83
:10068000BE0709F405C0ED89EA93AC890E94FD0814
:10069000DE0112960E943C0C67960895EFE1F4E0AB
:1006A000FA93EA93A0E00DD0E3E2F4E0FA93EA9340
:1006B000A1E007D0E7E2F4E0FA93EA93A2E001D0E8
:1006C0000895AA93AF98E881E061E2BBA981BA815D
:1006D0000E943F0CE881E062E2BBA981BA811296D8
:1006E0000E943F0CAF9A23960895A9E2B4E00E94BD
:1006F000490CE0912904F0912A04EA30A0E0FA07BD
:1007000031F40E94EF0BA7E2B4E00E94490CA091E3
:100710002704B0912804169731F40E94E80BA5E253
:10072000B4E00E94490CE0912504F0912604EA30DF
:10073000A0E0FA0741F4E5E2F4E00E94FB0BA3E23B
:10074000B4E00E94490CA0912304B09124041697B0
:1007500041F4E0E0F0E00E94E30BA1E2B4E00E948B
:10076000490CE0912104F0912204EA30A0E0FA075C
:1007700041F4E1E2F4E00E94FB0BAFE1B4E00E943F
:10078000490CA0911F04B0912004129741F4E0910C
:100790002104F0912204E430A0E0FA0709F00DC032
:1007A000E0E0E0931F04E0932004E0931F04E09353
:1007B0002004AFE2B4E00E94490CA0912F04B09154
:1007C00030045E9741F4E0E0F0E00E94F60BADE209
:1007D000B4E00E94490CA0912D04B0912E041C9706
:1007E00051F4E0E0F0E0E0932D04F0932E04ABE24E
:1007F000B4E00E94490C08951A9311E0E091390485
:10080000F0913A04A0911F04B0912004EA17FB076D
:10081000B9F5A0912104B0912204E0913B04F0913C
:100820003C04EA17FB0761F5A0912304B09124046E
:10083000E0913D04F0913E04EA17FB0709F5A09111
:100840002504B0912604E0913F04F0914004EA179A
:10085000FB07B1F4A0912904B0912A04E09143046C
:10086000F0914404EA17FB0759F4A0912704B091D2
:100870002804E0914104F0914204EA17FB0709F0D3
:1008800010E0103021F0AA24BB24E1E06E2E14C445
:10089000AA932897E0E0E883E983EA83EB83EC837B
:1008A000ED83EE83EF830E944F0C0E940A090E94A1
:1008B000D50BEE85E03029F4AEE7B2E00E94580C8B
:1008C00004C0A5E8B2E00E942B09ACE8B2E00E94A7
:1008D000580C0E945B0CA2E9B2E00E94580CA4E6FE
:1008E000B0E00E94FC0C2FEF3FEF46E050E04A934F
:1008F000A0E00E94FD08A3EAB2E00E94600C0E9402
:10090000680C09F499C0332322F02A30E0E03E0756
:100910000CF082C022970E94250C0E946E0CF901F7
:100920000E94290C0E94CE0B4A93A0E00E94FD0871
:10093000DE010E94580C1030B9F1FA013697DE0141
:100940001C96EE0FFF1FEA0FFB1FFF93EF93DE01D4
:100950000E94410BAF91BF91ED93FC934F5F5F4FAE
:10096000E8E0F0E0E417F507F1F4AC85BD851397F6
:100970004CF4AC85BD85129721F4AE85BF851497E4
:1009800009F40EC0E0E0EC87ED87EE87EF8746E0E4
:1009900050E00E94730CA5EAB2E00E942B0903C04C
:1009A00010E04F5F5F4F36C0FA013997DE011896AD
:1009B000EE0FFF1FEA0FFB1FFF93EF93DE010E9474
:1009C000410BAF91BF91ED93FC934F5F5F4FEBE015
:1009D000F0E0E417F507F1F4A885B98517974CF412
:1009E000A885B985169721F4AA85BB85109709F4C7
:1009F0000FC0E0E0E887E987EA87EB8749E050E04D
:100A0000E9E00E94780CA8EAB2E00E942B0902C03B
:100A1000229613C0229610C00E947C0C09F44DC08F
:100A20000E94810C49F40E94730CABEAB2E00E9470
:100A3000580C46E050E011E05ACFEE85E030D9F492
:100A4000EA85FB85E0931F04F0932004EC85FD8587
:100A5000E0932104F0932204EE81FF810E94E30BD6
:100A6000E885F985E0932504F09326040E94E80BBD
:100A7000E9E2F4E01AC0EA85FB85E0933904F093DB
:100A80003A04EC85FD85E0933B04F0933C04EE8151
:100A9000FF81E0933D04F0933E04E885F985E093FF
:100AA0003F04F09340040E94000CA0E0B0E0A0835B
:100AB000B1830E94860C0E94C80B0E94710E2F9673
:100AC00008950E946C0E11E02FEF3FEF0E94D50BAE
:100AD0000E94D20B0E940E0CA1EBB2E00E94580CB7
:100AE0000E945B0CA1ECB2E00E94580C0E94860CA4
:100AF0000E948A0C81F00E948D0C11F411E00CC050
:100B0000E3E0F0E0E217F30711F410E005C00E9403
:100B10007C0C09F455C0EACF0E94D50B0E94D20B81
:100B20000E940E0C103009F03FC00E94090C0E9478
:100B3000920C19F0ABECB2E002C0A2EDB2E00E9460
:100B40002B090E94CE0B0E945B0CA8EDB2E00E9424
:100B5000580C2FEF3FEF0E94860C0E948A0C09F17F
:100B60000E948D0CC1F4E0913804E03011F0E0E017
:100B700001C0E1E0E09338040E94090C0E94920C4D
:100B800019F0A8EEB2E002C0AFEEB2E00E942B096D
:100B90000E94CE0B06C00E947C0C91F00E94810C3A
:100BA00009F0D9CFA1E003C0103011F0A0E070DE51
:100BB0000E940E0CA5EFB2E00E949A0C0E94FC0C61
:100BC0000E94730E249608952697E0E0EC83ED834F
:100BD0000E944F0C0E94D20B0E940E0CA6E0B3E0C4
:100BE0000E94580C0E949F0C0E94A40C0E94290C89
:100BF0000E94A90CDE0116960E948609EC5F0E94F5
:100C0000780CABE0B3E00E943C0C0E949F0C0E9469
:100C1000AC0C0E94290C0E94A90C0E945B0CA1E163
:100C2000B3E00E94580C0E94860C0E948A0C49F086
:100C30000E94CE0B0E947C0C09F4EFC00E94810C34
:100C400009F0F1CFFE013696FA93EA93A2E2B3E0FF
:100C50000E9479090E94CE0B0E94D20B0E940E0CBA
:100C6000A3E2B3E00E942B090E945B0CA0E3B3E077
:100C70000E942B090E94860C0E948A0C71F0022EA1
:100C8000032A11F411E00AC00E948D0C11F410E047
:100C900005C00E947C0C09F4C0C0ECCF0E94CE0BB2
:100CA0000E94D20B0E940E0C103019F0AAE3B3E0A0
:100CB00002C0A0E4B3E00E942B090E94CE0B0E9468
:100CC0005B0C0E94CE0BA6E4B3E00E94580C2FEF01
:100CD0003FEF0E94860C0E948A0CA9F1332322F078
:100CE0002A30E0E03E070CF027C022970E94250C36
:100CF0000E946E0CF9010E94290CFE0138960E9498
:100D0000130C0E9468090E94CE0B0E94730CDE0136
:100D100018960E94580C2FEF3FEFEC85FD85319619
:100D2000EC87FD870E94CE0BAC85BD85139711F42F
:100D300022960AC0229607C00E947C0C09F46DC05E
:100D40000E94810C09F0C5CFDE0116960E94410B6E
:100D5000AF01103039F10E94AC0C4E175F078CF0D8
:100D60000E94D50B0E94D20B0E940E0CA7E5B3E0A7
:100D70000E94580C0E945B0CA4E6B3E00E94B10CE8
:100D80000EC040933104509332040E94D50B0E9450
:100D9000D20B0E940E0CA5E7B3E00E949A0C0E94B1
:100DA000FC0C3BC00E94A40CE417F5078CF00E94D9
:100DB000D50B0E94D20B0E940E0CA6E8B3E00E9455
:100DC0003C0C0E945B0CA3E9B3E00E94B10C23C071
:100DD0004536E0E05E078CF00E94860C0E94B60C5F
:100DE0000E940E0CA5EAB3E00E943C0C0E945B0C32
:100DF000A2EBB3E00E94B10C0EC0409333045093B9
:100E000034040E94860C0E94B60C0E940E0CA2ECC8
:100E1000B3E00E949A0C0E94FC0C0E94710E2C966A
:100E200008952B970E946A0E0FEF1FEF0E94860C09
:100E30000E94D20B0E940E0CA3EDB3E00E94580C4E
:100E4000AAEDB3E00E94580C0E945B0CA5EEB3E043
:100E50000E94580C0FEF1FEFE6E0F0E0ED87FE87F1
:100E6000ED850E94780CA6EFB3E00E94600C8F0124
:100E7000EFEFFFEFE017F10709F4A0C0112322F014
:100E80000A30E0E01E070CF070C00E949F0CF801D1
:100E90000E94290C0E94CE0BED850E94780C0E94C6
:100EA000A90C0E94B90CDE0118960E946809AD8554
:100EB000BE85199779F40E94BE0C9F010E94B90C5F
:100EC000A8EFB3E00E947909ED85FE853196ED87A4
:100ED000FE8747C0AD85BE851C9709F50E94BE0CF4
:100EE000AF010E94B90CA9EFB3E00E9479094D301F
:100EF000E0E05E0774F040E050E0EBE0F0E0ED870A
:100F0000FE87ED850E94780CAAEFB3E00E94580C92
:100F1000A7CFED85FE853196ED87FE8722C0AD8592
:100F2000BE851F97F1F40E94BE0CEF87F88B0E94DC
:100F3000B90CADEFB3E00E947909AF85B8895F972E
:100F40007CF0E0E0EF87E88BEEE0F0E0ED87FE87F5
:100F5000ED850E94780CAEEFB3E00E94580C80CF74
:100F60002EC0ED85FE85319627C0EAE0F0E0E0175F
:100F7000F107E9F1EBE0F0E0E017F107F9F40E9486
:100F8000B90CA1E0B4E00E947909FE013696FA930B
:100F9000EA93A2E0B4E00E94790920E030E040E06A
:100FA00050E0E0E0EF87E88B0E94730CA3E0B4E030
:100FB0000E94580CE6E0F0E0ED87FE8751CF2093C9
:100FC0002B0430932C0440932D0450932E04EF8572
:100FD000F8890E94F60B0E94860C0E94B60C0E94B3
:100FE0000E0CAEE0B4E00E949A0C0E94FC0C0E9431
:100FF000710E619608951A930A93A7E007DA8F019C
:101000000E943D0E0E946C0DA6EFB8E28CE990E4C0
:101010000E949A0DDF01CB01E0E0F0E060E271E4B4
:101020000E94E80D0E94350D8F01112352F4E1E07A
:10103000E0933704F801AFEFBFEF0E944A0E8F0133
:1010400003C0E0E0E09337040093350410933604C6
:101050008AC01A9310E0AE980E94CE0BA09135047E
:10106000B09136040E94A40CAE17BF0724F49098E8
:10107000919811E012C0A0913504B09136040E94FD
:10108000AC0CEA17FB0724F49098919A11E005C084
:10109000909A9198E1E04E2E10E0442011F010302B
:1010A00009F407C0969AA4E6B0E00E94FC0C96985A
:1010B00044240E94CE0BAE9A199108951A930A9374
:1010C0000FEF1FEFC498B09904C00E94CE0B01E04F
:1010D00010E0B19904C00E94CE0B02E010E0B39979
:1010E00004C00E94CE0B03E010E0C49AC598B099EA
:1010F00004C00E94CE0B04E010E0B19904C00E942D
:10110000CE0B05E010E0B39904C00E94CE0B06E0C0
:1011100010E0C59AC698B09904C00E94CE0B07E0B3
:1011200010E0B19904C00E94CE0B08E010E0B39922
:1011300004C00E94CE0B09E010E0C69AC798B0998F
:1011400004C00E94CE0B0AE010E0B19904C00E94D6
:10115000CE0B00E010E0B39904C00E94CE0B0BE070
:1011600010E0C79AF8010991199108955DD9789412
:10117000DCD9A2E3B0E00E94FC0C0E94090CA1E0C3
:10118000B0E027DAA2E3B0E00E94FC0CE1E0E51554
:1011900019F41ADD55240BC0E1E0E71519F491DCD0
:1011A000772405C0E1E0E91529F43BDE992432D02B
:1011B0000E94860CDDCFFFCFAA93E5B3E07FAE2F70
:1011C000E881E295EF70EA2BE5BB8DE08A95F1F7B7
:1011D000AD9A8DE08A95F1F7AD988DE08A95F1F79B
:1011E00075C0AA93A881E8DFE881E295E883A88129
:1011F000E3DF85E88A95F1F769C0AA93E881F0E01A
:10120000E15BFB4FE081A981AE0FEBDF8980D880E5
:1012100022960895A2E00E94C20CACE0E2DFA1E0B9
:101220000E94C20CE0E0DE2E8E2E0895AA93A881C3
:10123000AA3011F08C1448F0E0E0EA93D394AD2D7D
:10124000DCDFA881AA3009F441C08394AC9AA8815C
:10125000C8DFAC983BC0BA93AA931A93A981BA810C
:10126000ED91A983BA831E2FE03019F0A12FDEDFA4
:10127000F5CF188123960895AA93E4B3EF60E4BBF9
:10128000A59AA49AA69AAD98AC98AE98C880E88121
:10129000E058E0935104E881E054E09352040E9446
:1012A000D50B0E94C80C0E94C80C0E94C80CA0E27A
:1012B00083DF88EC90E00197F1F7A8E292DFA4E0E9
:1012C00090DFA5E88EDFA6E08CDFA4DF21960895ED
:1012D000BA93AA93E991F991A991B991CD016D9130
:1012E0006623E9F7119761916D936623E1F7FC019D
:1012F0000895BA93AA93E991F991A991B991CD0171
:1013000061916D936623E1F7FC010895BA93AA9366
:10131000A991B991EE27FF276D91662311F03196BF
:10132000FBCF0895BA93AA93AA27BB27E991F99115
:101330000590002011F01196FBCFFD010895BA939E
:10134000AA931A930A93AA81BB8112960E945D0EFA
:10135000309729F1AA81BB8114960E945D0E8F01FE
:10136000309761F00230E0E01E0780F0F80131971D
:101370008F01AA81BB811496ED93FC93AA81BB8156
:1013800012960E94490C3197AC81A083AA81BB813F
:101390000E945D0EFF2312F00E94490C06C0AA8134
:1013A000BB81EFEFFFEFED93FC9319810881259648
:1013B0000895BA93AA9326970E946A0E10E0AC850E
:1013C000BD85E0E0F0E0ED93FC93EA89FB8931967E
:1013D000EA8BFB8B3197E4912E2FE03009F415C195
:1013E000E12FE03039F4253211F411E002C00E94FF
:1013F000D00C0AC1E130A9F4253219F40E94D00CB6
:1014000002C112E040E000E02D3211F401E0FCC026
:101410002B3211F44BE2F8C0203211F440E2F4C058
:1014200002C0E23039F450E013E0203311F40068D8
:10143000EBC003C0E33009F0E7C0203310F02A33DB
:1014400008F007C0AAE05A9F502DE22FE0535E0F2C
:10145000DBC0E22FE33649F40E94D70CE889F98912
:10146000A481AA930E94DD0CCEC0E33741F40E9410
:10147000D70C0E94E30C0E9486091E2F0AC0E03799
:1014800061F40E94D70C0E94E30C0E9492091E2F67
:10149000086002600F7730E034C0E43611F0E936BE
:1014A00011F4046002C0E53731F4E4E5F0E0EE83C6
:1014B000FF8315E00CC0E83511F4086003C0E8377D
:1014C00009F0A1C0EEE5F0E0EE83FF8314E002FF37
:1014D00014C00E94D70C0E94ED0CAB85AA233AF4ED
:1014E000EA85FB850E94310EEA87FB874DE240309A
:1014F00011F01F5F01C00B7F04C00E94D70C0E9437
:10150000ED0C00FD11C0151778F407FF08C002FFAD
:1015100004C00B7F242F115001C020E301C020E242
:101520000E94D00C5150EFCF312F01FF17C0303047
:10153000A1F003FF06C0EE81FF812591EE83FF83BA
:1015400005C0AE81BF812D91AE83BF830E94D00CB8
:10155000503009F051503150EACF4BC020E3EE81BA
:10156000FF810E94610EE887F987EE81FF81329644
:10157000EE83FF83E885F985AA85BB85AE17BF0793
:1015800050F02F5FA885B985EA85FB85EA1BFB0B28
:10159000EA87FB87EFCF2A3328F003FF02C0295FD9
:1015A00001C0295D04FD1AC0213320F4A885B98546
:1015B000119709F409C0531710F000FF01C013C0C0
:1015C00020E207FF0BC020E3006102FF07C00B7F92
:1015D0004A930E94DD0C503009F051500E94D00C0B
:1015E000503009F051503150A885B985129708F054
:1015F000B5CF00FF08C0503031F05150E0E2EA931F
:101600000E94DD0CF8CF10E0E0CEAC85BD850E94D5
:101610005D0E0E94710E64960895FF92F82E269733
:101620000E946C0E0E94F50C309719F4EFEFFFEF5B
:1016300023C0DE0116960E942D0E8D010E94F50C2E
:10164000EE83FF83E0E0E887E987DE011A960E94D7
:101650002D0E0E945D0EFA93EA931A930A93EFE916
:10166000F9E0FA93EA93DE011A96A3DE9F01AE81B8
:10167000BF81E0E0EC93F9010E94730E2A96FF907F
:101680000895BA93AA93B981A881EC918A2FAE2FBD
:101690000E94AF0BA82FEE2311F01196F6CFE8941D
:1016A000EC91ED3211F4689402C0EB3209F411961A
:1016B00066277727EC918A2FAE2F0E94A60BA82FC2
:1016C000EE2379F0FB01660F771F660F771F6E0F11
:1016D0007F1F660F771FED91FF27E0536E0F7F1F6F
:1016E000E9CFFB011EF4E095F0953196229608951E
:1016F000BA93AA93A991B991E991F99130962AF4F4
:10170000E095F09531966DE26D93E89480E197E273
:101710000DD088EE93E00AD084E6992707D08AE0BE
:1017200005D06E2F10D066276C9308956627E817B2
:10173000F90720F06395E81BF90BC9F7662311F44C
:1017400016F008956894605D6D930895AA93E1E0A2
:10175000F991F03310F0FA3308F0EE270895AA93C8
:10176000E1E0F991F03229F0F93010F0FE3008F0A4
:10177000EE2708950A921A92FA926A937A938A93BC
:101780009A93AA93BA93EA93FA93EFB7EA930895D8
:101790000E940A09A2E3B0E00C94FC0CAAE0B0E0BD
:1017A0000C94FC0C0E940A09F9CFA4E1B0E00C945F
:1017B000FC0CEFE7EDBDEFEFECBD0895E0E0EFBD11
:1017C000E4E0EEBDF6CFE0932304F0932404089503
:1017D000E0E0F0E0E0932704F09328040895E9E2C4
:1017E000F4E0A0E0B0E0A083B1830895E0932F047B
:1017F000F09330040895A0E0B0E0A083B183089591
:10180000E0E0F0E0E0934104F0934204E3E4F4E02C
:101810000895E0E0F0E0FA93EA930895E0E0EA93B7
:10182000A0E00C94FD08FA93EA93DE011296089565
:101830000E94780BFE013596F6CFFE013596FA939D
:10184000EA9308950E946809F8CFFE01FA93EA939B
:1018500008950E943D0E0E94650E84E00E940D0BCB
:10186000289608950E94780BFE013296DCCFFE0187
:101870003296FA93EA9308950E942B0996CF0E941C
:101880005D0EEB5BFB4FE081EBBBA1E0B0E00C94A5
:10189000FC0CED91FD913196FE93EE9308950E941C
:1018A0006A0E11E02FEF3FEFAEE1B0E00C94FC0CBC
:1018B0000E942B0973CFE0E0EA93A1E00C94FD08AD
:1018C0000E942B09AEE1B0E00E94FC0C0C945E0873
:1018D0009F01EFEFFFEFE217F3070895EDE7F0E068
:1018E000FA93EA930895E6E0EA93A0E00C94FD08E9
:1018F000EA93A0E00C94FD08EAE0F0E0E217F307B9
:101900000895EBE0F0E0E217F3070895AEE1B0E0F0
:101910000C94FC0C0E945E08DBCFE1E0F0E0E217E3
:10192000F3070895A0E0B0E00E94E902E0913804D6
:10193000E03008950E942B09A8ECB0E00895FE0164
:101940003696FA93EA93CACFE0913104F0913204CB
:101950000895DE011696ACCFE0913304F091340483
:1019600008950E942B09ACE2B1E008950E940A0993
:10197000CDCFFE013896FA93EA930895DE011896CA
:101980000C94410B0E94F108A3E0B0E00C94FC0C15
:10199000A0E30E94DC0888EC90E00197F1F708953D
:1019A0002A93AD85BE85EF85F88909950895E88964
:1019B000F9893497E88BF98B0895AD85BE85EF855D
:1019C000F88909950895A889B98914960E945D0E31
:1019D000EE83FF83AE81BF810895A889B9891496EB
:1019E0000E945D0EEA87FB870895DE011C960E9427
:1019F0002D0E0E945D0E0895109639F080ED97E04F
:101A00000197F1F7A8951197C9F70895552342F466
:101A1000503811F4E0FF04C03196691F791F6BF054
:101A200050E8572711F45F9373C05F3F31F0660FA2
:101A3000000C57956795752F08955F9300200AF065
:101A400073C06CC050E8192E1522880F991F952776
:101A5000550F879550E8072E0522660F771F7527CB
:101A6000550F67950895689401C0E8945F93F2DF7D
:101A7000703818F07F3F08F44BC056E1571BAAF4AA
:101A8000519558300EF4593030F0EFEFFFEF6FEF13
:101A90007FE777F91AC077275523B9F0EE0FFF1FBC
:101AA000661F771F5A95D1F710C07727583028F056
:101AB000EF2FF62F672F5850F9CF552331F0769539
:101AC0006795F795E7955A95D1F700200AF4CDD0A0
:101AD0005F910895689401C0E89430976040704029
:101AE000B1F0002426F0772312F40094BED0172E14
:101AF0007EE1112032F07A95EE0FFF1F661F111C58
:101B0000F9CFEF2FF62F612D5F938ADF5F91089554
:101B1000EE27FF27662777275F910895EFEFFFEF06
:101B20006FE77FEF5F910895EFEFFFEF6FE77FE7DC
:101B30005F9108955F9386DF703851F3903841F3D9
:101B400001240894791F23F41CF300203AF3ECCF0E
:101B50000F921F932F933F934F931127222799277B
:101B6000689FA0018F9F302D410D591F6B9F300D35
:101B7000411D591F8E9F27D0BF9F25D06A9F23D01C
:101B8000BE9F1DD0AF9F1BD0AE9F110D291F391FC7
:101B9000491F591FE32FF42F652F522F4F913F916B
:101BA0002F911F910F9066232AF0550FEE1FFF1FF4
:101BB000661F02C073954BF229DF5F910895100DE7
:101BC000211D391F02C0200D311D491F591F0895C5
:101BD0005F9338DF703821F411200AF49FCFA4CF2F
:101BE000903809F495CF01240894970B1BF4D4F393
:101BF0000020F3CF792F1F932F933F934F931124FE
:101C00001127222733274427552790E2AE17BF0715
:101C10008607410730F0AE1BBF0B860B410B0894C3
:101C200001C08894551F221F331F111CAA1FBB1F00
:101C3000881F441F9A9551F7F901612D4F913F91EB
:101C40002F911F91662332F0550FEE1FFF1F661F65
:101C50007A9543F2DBDE5F9108950024AF0DB01D4D
:101C60000895F195E195F0400895F095609570958F
:101C7000E195FF4F6F4F7F4F08956F2F660F660BF3
:101C8000762F0895FA9FF02DEB9FF00DEA9FE02D3F
:101C9000F10D089504D0F6DF0EF4E3DF0895E89423
:101CA000F7FF02C0DEDF6894B7FF06C0A095B095CD
:101CB000119600F8039400FA0895ED91FC911197A4
:101CC00008950590F491E02D08957A936A93FA931C
:101CD000EA9308955A934A933A932A931A930A934C
:101CE00008955D814C813B812A8119810881089585
:00000001FF
