:0C0000000C9446020C9473020C947702DE
:10000C000C9482020C9400000C9400000C940000E0
:10001C000C9400000C9400000C948D020C940000C5
:10002C000C9487020C9400000C9400000C940000BB
:10003C000C9400000C9400000C9400000C94000034
:10004C000C9400000C9400001027E80364000A00D4
:10005C000100001000011000010000000000000071
:10006C00000100003F065B4F666D7D077F6FD20479
:10007C000000000000000000000000000000000074
:10008C0000000000000000000300FFFF2F00200014
:10009C002D25640043003A003E4F4E003E4F46462D
:1000AC00002062746E323A53746F700050696E3A6D
:1000BC00202D2D2D2D002A3A45786974233A43685A
:1000CC00616E6750696E005F002A00202050696ED7
:1000DC00206368616E67656420200020205375637F
:1000EC006365737366756C79212020004E657750BB
:1000FC00696E3A202D2D2D2D002A3A4578697420F1
:10010C00233A52657365740020202057726F6E6716
:10011C002050696E21202020004375726E74506946
:10012C006E3A202D2D2D2D00636C6F636B200061BA
:10013C006C61726D20002D2D3A2D2D002A3A6469C8
:10014C007363617264233A726573657400576169F5
:10015C0074200025647365637320616E6400746899
:10016C00656E2074727920616761696E00313A4363
:10017C006C6F636B20333A416C61726D002A3A44A8
:10018C006973636172640020313A4F464600203136
:10019C003A4F4E002A3A4469736361726420233AE1
:1001AC00536574005375636365737366756C79205E
:1001BC0073657421006D696E3A00206D61783A00A8
:1001CC002A3A4469736361726420233A4564697402
:1001DC0000303A4D696E2C20313A4D6178004D69F2
:1001EC006E3A20004D61783A20002A3A44697363D4
:1001FC0061726420233A53617665004D696E206309
:10020C00616E27742062650062696767657220748D
:10021C0068616E206D617821004D61782063616E9C
:10022C00277420626500736D616C6C657220746854
:10023C00616E206D696E210062696767657220745A
:10024C0068616E2031303000646174653A20002D95
:10025C002D2D2D2F2D2D2F2D2D002A3A4469736312
:10026C00617264233A5265736574000080C00100AA
:10027C002D4E414E00494E4600000A000400660017
:10028C000A005205700002005E057A00020060024E
:10029C009800020062029800020064029A000200B8
:1002AC006602A00002006802A20004006A02A40018
:1002BC0005006E02A8000B007302AD000A007E025E
:1002CC00B80011008802C20002009902D30001009C
:1002DC009B02990001009C02990002009D02D5002E
:1002EC0001009F0299001000A002D7001100B0027B
:1002FC00E7000D00C102F8000F00CE02050111004D
:10030C00DD0214010F00EE0225010F00FD020501B4
:10031C000A000C03B80011001603C20001002703E9
:10032C0099000100280399000F00290325010F00F3
:10033C003803050105004703BD0007004C033401D9
:10034C00070053033B0106005A03420111006003EE
:10035C00480102007103D30003007303BF000300C4
:10036C007603BF0006007903420106007F035901A2
:10037C000F0085036A011000940379010A00A4039D
:10038C0089010700AE0393010600B5039A01100022
:10039C00BB03A0010700CB0393010600D2039A0113
:1003AC001100D803B0010600E90359010F00EF0357
:1003BC006A010500FE03C10106000304C601110019
:1003CC000904CC0101001A0499000D001B04DD0185
:1003DC000A002804890106003204EA0106003804E8
:1003EC00F00111003E04F6010D004F04070211004C
:1003FC005C04140211006D04B0010D007E04250292
:10040C0012008B0432020D009D0425021000AA0478
:10041C0044021100BA04B0010600CB0459010F00CC
:10042C00D1046A010700E00454020B00E7045B02EC
:10043C001100F204660202000305D3000100050559
:10044C00990001000605990003000705BF00010093
:10045C000A05990003000B05BF0001000E05990069
:10046C0001000F0599000B0010055B0211001B0524
:10047C00B001020060057802010066057A020000F6
:10048C00F894EE27ECBBF1E0FBBFEBBFE5BF8DE0D2
:10049C00A2E0BB27ED938A95E9F780E098E0A0E60F
:1004AC00ED930197E9F7E6E8F2E0859195910097D5
:1004BC0061F0A591B59105901590BF01F0010590E3
:1004CC000D920197E1F7FB01F0CFEFE5EDBFE8E00E
:1004DC00EEBFC0E6D2E00C94890BEA93E1E05E2E0D
:1004EC000EC00E94990E992021F099240E94A70E0B
:1004FC0002C0E1E04E2E37C0EA93E1E07E2EE99196
:10050C0018950E94990E85D1EFE0E2BF2CC00E9495
:10051C00990EA6D10E94CD0A0E94AD0E0E94FC0A33
:10052C00B4D3992081F0F60131966F01ECE3F0E041
:10053C00EC15FD0524F499240E94B10E04C0969A82
:10054C000E94B40E9698882061F0ACE5B5E0ED9170
:10055C00FD913197FE93EE930E94B80E309709F4FB
:10056C0088240E94BD0EE991EFBFF991E991B991F0
:10057C00A9919991899179916991F9901990099022
:10058C001895AA93E881E7B98BE18A95F1F7369A29
:10059C00349BFECF349AE4B1F5B121960895EBB7B4
:1005AC00E06EEBBFEAE0E5BFE0E0E4BFE0EEEABFFF
:1005BC00E5E0E9BFE3E0E3BFEFE0E2BF0E94C20E7B
:1005CC000E94C20EE0E0E7B9E4E8E6B9E0E0E0BF83
:1005DC00A0E10E941A0CEEEFEABBE0EFE7BBEFEFF5
:1005EC00E4BBE3EFE1BBEFEFE2BBE8BBE1E0F0E043
:1005FC00E0932C05F0932D05EEE2F5E0A2E0B0E0DF
:10060C00A083B183E4E0F0E00E94C70EE2E3F5E0E2
:10061C00A5E0B0E0A083B1830E94CC0E0E94D30E63
:10062C00E8E7F5E0E0933805F0933905E3E0F0E016
:10063C00E0933A05F0933B05E4E1F0E00E94DA0E1A
:10064C00E2E1F0E0E0933E05F0933F05E9E1F0E0F4
:10065C00E0934005F0934105E0E0E0934505E1E0CF
:10066C00F0E0E0934605F0934705E8E4F5E0A3E0FD
:10067C00B0E0A083B183E3E0F0E0E0934A05F093AF
:10068C004B05ECE4F5E00E94DF0E0E94E40E0E94A4
:10069C00DF0E06D00E94ED0EA1E0B0E055D008951B
:1006AC0065970E94F20EE0913805F09139050E9491
:1006BC00F70E0E94FC0E0E94580C0E94010FA0E63F
:1006CC00B2E00E94470CE0913A05F0913B050E9484
:1006DC00F70E0E94FC0E0E94060FA2E6B2E00E94EA
:1006EC00470CE0913C05F0913D050E94F70E0E94ED
:1006FC00FC0E0E94060FA4E6B2E00E94470CE091AB
:10070C004405E03029F00E94090FECE9F0E004C048
:10071C000E94090FEDE9F0E0FA93EA93E0914205AB
:10072C00F09143050E940D0FFE0135960E94F70EC5
:10073C000E94060FA6E6B2E00E94470CDE01159659
:10074C000E94090C65960895BA93AA936397E09159
:10075C004605F09147050E94F70E0E94160F0E9465
:10076C00580CE0914805F09149050E94F70E0E9443
:10077C00160F0E94470C0E941B0FA8E6B2E00E94C5
:10078C00470CE0914A05F0914B050E94F70E0E9430
:10079C00160F0E94470CE0914C05F0914D050E94FC
:1007AC00F70E0E94160F0E94470C992081F4E091DD
:1007BC004505E03029F00E941B0FAAE6B2E004C008
:1007CC000E941B0FAEE6B2E00E94470C0AC09920B3
:1007DC0041F00E941B0FA3E7B2E00E94470C0E945D
:1007EC00B40EAD89BE89AF3FEFEFBE0731F0AB89D8
:1007FC00BC89AF3FEFEFBE0709F405C0ED89EA9362
:10080C00AC890E94D30BDE0112960E94200F6796D2
:10081C000895ECE2F5E0FA93EA93A0E00DD0E0E362
:10082C00F5E0FA93EA93A1E007D0E4E3F5E0FA935C
:10083C00EA93A2E001D00895AA93AF98E881E06111
:10084C00E2BBA981BA810E94230FE881E062E2BB7E
:10085C00A981BA8112960E94230FAF9A239608950C
:10086C00A6E3B5E00E942D0FE0913605F091370517
:10087C00EA30A0E0FA0731F40E94D30EA4E3B5E00D
:10088C000E942D0FA0913405B0913505169731F4C7
:10089C000E94CC0EA2E3B5E00E942D0FE091320530
:1008AC00F0913305EA30A0E0FA0741F4E2E3F5E019
:1008BC000E94DF0EA0E3B5E00E942D0FA091300541
:1008CC00B0913105169741F4E0E0F0E00E94C70EBC
:1008DC00AEE2B5E00E942D0FE0912E05F0912F05B0
:1008EC00EA30A0E0FA0741F4EEE2F5E00E94DF0EF8
:1008FC00ACE2B5E00E942D0FA0912C05B0912D0516
:10090C00129741F4E0912E05F0912F05E430A0E010
:10091C00FA0709F00DC0E0E0E0932C05E0932D05FB
:10092C00E0932C05E0932D05ACE3B5E00E942D0F70
:10093C00A0913C05B0913D055E9741F4E0E0F0E0FC
:10094C000E94DA0EAAE3B5E00E942D0FA0913A05A1
:10095C00B0913B051C9751F4E0E0F0E0E0933A05D0
:10096C00F0933B05A8E3B5E00E942D0F08956E9718
:10097C008CE1A2E0B0E0ECE7F0E00E9487110E946D
:10098C00791110E000E020E030E040E050E00E94FF
:10099C00330F0E94B10E0E94F20E0E94370FAEE789
:1009AC00B2E00E94470CDE0118960E94200F0E94B4
:1009BC003C0F0E94370FA8E8B2E00E94410F0E9442
:1009CC00330FEFEFFFEFEAA3FBA3E5E0F0E0EE8FD0
:1009DC00FF8F0E94470FA9E9B2E00E94090C00307A
:1009EC0099F40E944C0FABE9B2E00E94510F0E94A7
:1009FC00540FECA1FDA10E940D0FEFE00E94590FC6
:100A0C000E945D0F0E94330F0E94330F24D6EAA37D
:100A1C00FBA3AAA1BBA1AF3FEFEFBE0709F430C106
:100A2C00EBA1EE2312F01A970CF0D9C00E944C0FD8
:100A3C00ACE9B2E00E94510F0E94540FEEA1FFA14D
:100A4C000E940D0F0E94AD0E0E94470F103011F046
:100A5C00003009F403C0DE01169602C0ADE9B2E025
:100A6C000E94090C0E94330F0E94610FDE01189640
:100A7C000E94470CE3E0F0E0E217F30709F0A7C08F
:100A8C00DE0159960E94200EAF010E94610FAFE962
:100A9C00B2E00E94580C103011F0003009F419C06B
:100AAC0040935E0550935F050E94E20B0E94B40ECA
:100ABC000E94F20EA0EAB2E00E94200F0E943C0FAE
:100ACC00A0EBB2E00E94660F0E940B10E2E0F0E097
:100ADC00D8C0E0915E05F0915F05E417F50719F5B4
:100AEC001030F1F001E020E030E00E94B10E0E94E5
:100AFC00370FA1ECB2E00E94580C0E94F20E0E943B
:100B0C006B0F0E94370FAEECB2E00E94580C0E94A3
:100B1C003C0F0E946B0FE8E0F0E0EE8FFF8F59CF97
:100B2C00E1E0F0E0AEC0E8A1F9A13197E8A3F9A3A8
:100B3C000E94F20E0E94370FADEDB2E00E94410F01
:100B4C000E94700FE8A1F9A1309759F4E1E08E2EC4
:100B5C00EFE0F0E0E0935C05F0935D05E0E0F0E0A1
:100B6C0090C00E94E20B0E94740F0E94F20E103093
:100B7C00A9F00E94370FAEEEB2E00E94410F0E9426
:100B8C00740F0E943C0F0E94370FADEFB2E00E9431
:100B9C00410F0E94740FEAE0F0E014C00E94370F7E
:100BAC00ACE0B3E00E94410F0E94740F0E943C0F16
:100BBC000E94370FA6E1B3E00E94410F0E94740F10
:100BCC00E5E0F0E0EE8FFF8F20E030E002CF2F5F0A
:100BDC003F4FEE8DFF8D3196EE8FFF8F51C0AAA146
:100BEC00BBA11A9719F4EFEFFFEF4BC0AAA1BBA161
:100BFC001B9709F045C00E94610FA7E2B3E00E9469
:100C0C00510FA8E2B3E00E94580C103001F511E02E
:100C1C000E94B10E0E94F20E0E94370FA9E2B3E0BF
:100C2C000E94410F0E94740F0E943C0F0E94370FCC
:100C3C00A8E3B3E00E94410F0E94740FEAE0F0E0D9
:100C4C00EE8FFF8FE3E0F0E0E8A3F9A317C00030CC
:100C5C0019F4EAE0F0E002C0E8E0F0E0EE8FFF8F7C
:100C6C000E94370FA7E4B3E00E94580C0E94470F74
:100C7C00DE0118960E94090C0E94740F20E030E0EF
:100C8C00A8CE0E948011A49608951A9311E0E091C9
:100C9C004605F0914705A0912C05B0912D05EA175A
:100CAC00FB07B9F5A0912E05B0912F05E0914805F1
:100CBC00F0914905EA17FB0761F5A0913005B09159
:100CCC003105E0914A05F0914B05EA17FB0709F550
:100CDC00A0913205B0913305E0914C05F0914D0592
:100CEC00EA17FB07B1F4A0913605B0913705E091F6
:100CFC005005F0915105EA17FB0759F4A091340502
:100D0C00B0913505E0914E05F0914F05EA17FB07C0
:100D1C0009F010E0103021F0CC24DD24E1E09E2E0F
:100D2C0098C4AA932897E0E0E883E983EA83EB83ED
:100D3C00EC83ED83EE83EF830E94791111E02FEFAA
:100D4C003FEF0E94330F0E94E20B0E94B40EEE851F
:100D5C00E03029F4ACE4B3E00E94780F04C0A3E5C2
:100D6C00B3E00E94090CAAE5B3E00E94780F0E9440
:100D7C003C0FA0E6B3E00E94780FA4E6B0E00E941E
:100D8C000B102FEF3FEF46E050E04A93A0E00E949B
:100D9C00D30BA1E7B3E00E947B0F0E94830F09F4F1
:100DAC009AC0332322F02A30E0E03E070CF082C0D8
:100DBC0022970E94090F0E94540FF9010E940D0FF7
:100DCC000E94AD0E4A93A0E00E94D30B0E94890FA3
:100DDC001030C1F1FA013697DE011C96EE0FFF1FA1
:100DEC00EA0FFB1FFF93EF93DE010E94200EAF91E1
:100DFC00BF91ED93FC934F5F5F4FE8E0F0E0E41799
:100E0C00F507F9F4AC85BD8513974CF4AC85BD851D
:100E1C00129721F4AE85BF85149709F40FC0E0E05A
:100E2C00EC87ED87EE87EF8746E050E0E6E00E9426
:100E3C00590FA3E7B3E00E94090C03C010E04F5F09
:100E4C005F4F36C0FA013997DE011896EE0FFF1F7F
:100E5C00EA0FFB1FFF93EF93DE010E94200EAF9170
:100E6C00BF91ED93FC934F5F5F4FEBE0F0E0E41725
:100E7C00F507F1F4A885B98517974CF4A885B985C1
:100E8C00169721F4AA85BB85109709F40FC0E0E0F2
:100E9C00E887E987EA87EB8749E050E0E9E00E94C0
:100EAC00590FA6E7B3E00E94090C02C0229614C0A9
:100EBC00229611C00E948B0F09F44EC00E94900F15
:100ECC0051F4E6E00E94590FA9E7B3E00E94780FB5
:100EDC0046E050E011E059CFEE85E030D9F4EA85D8
:100EEC00FB85E0932C05F0932D05EC85FD85E093B7
:100EFC002E05F0932F05EE81FF810E94C70EE88529
:100F0C00F985E0933205F09333050E94CC0EE6E3AD
:100F1C00F5E01AC0EA85FB85E0934605F09347059A
:100F2C00EC85FD85E0934805F0934905EE81FF8142
:100F3C00E0934A05F0934B05E885F985E0934C0561
:100F4C00F0934D050E94E40EA0E0B0E0A083B183C5
:100F5C000E94330F0E94A70E0E9480112F960895B5
:100F6C000E947B1111E02FEF3FEF8820B9F02797FB
:100F7C000E94AD0E0E94B10EAFE7B3E00E94780F55
:100F8C000E94090F0E94950F0E94890F0E943C0F2E
:100F9C00A5E8B3E00E949B0F279684C0BB2069F0A4
:100FAC000E949E0F39F00E94A70F21F0A881B981F1
:100FBC00129711F4229676C022960E94B40E0E94CB
:100FCC00B10E0E94F20EA4E9B3E00E94780F0E94C9
:100FDC003C0FA4EAB3E00E94780FA8E20E94AD0F88
:100FEC0081F00E94B30F11F411E00CC0E3E0F0E0CB
:100FFC00E217F30711F410E005C00E948B0F09F4FF
:10100C0051C0EBCF0E94B40E0E94B10E0E94F20EA2
:10101C001030F1F50E94ED0E0E94B80F19F0AEEAF7
:10102C00B3E002C0A5EBB3E00E94090C0E94AD0E28
:10103C000E943C0FABEBB3E00E94780F2FEF3FEF19
:10104C00A2E30E94AD0F09F10E94B30FC1F4E0912D
:10105C004505E03011F0E0E001C0E1E0E09345052A
:10106C000E94ED0E0E94B80F19F0ABECB3E002C079
:10107C00A2EDB3E00E94090C0E94AD0E06C00E94C6
:10108C008B0F81F00E94900F09F0DACFA1E003C022
:10109C00103011F0A0E045DE0E94F20EA8EDB3E096
:1010AC000E949B0F0E948211249608952697E0E0DF
:1010BC00EC83ED830E94791111E02FEF3FEF882034
:1010CC00B9F027970E94AD0E0E94B10EA9EEB3E0C5
:1010DC000E94780F0E94090F0E94950F0E94890FA1
:1010EC000E943C0FAFEEB3E00E949B0F27963AC1D3
:1010FC00BB2069F00E949E0F39F00E94A70F21F0CF
:10110C00A881B981129711F422962CC122960E94C3
:10111C00330F0E94B10E0E94F20EAEEFB3E00E94AC
:10112C00780F0E944C0F0E94540F0E94C00F0E9417
:10113C000D0F0E945D0F0E94AD0EDE0116960E94EF
:10114C00650CEC5F0E94590FA3E0B4E00E94200FE5
:10115C000E944C0F0E94540F0E94C50F0E940D0F4D
:10116C000E945D0F0E94AD0E0E943C0FA9E0B4E0FE
:10117C000E94780FA2E30E94AD0F49F00E94AD0EC1
:10118C000E948B0F09F4EEC00E94900F09F0F2CF71
:10119C000E944C0FAAE1B4E00E94580C0E94AD0EC4
:1011AC000E94B10E0E94F20EABE1B4E00E94090C59
:1011BC000E943C0FA8E2B4E00E94090CA2E30E943A
:1011CC00AD0F71F0022E032A11F411E00AC00E9437
:1011DC00B30F11F410E005C00E948B0F09F4C2C0CC
:1011EC00EDCF0E94AD0E0E94B10E0E94F20E103097
:1011FC0019F0A2E3B4E002C0A8E3B4E00E94090C29
:10120C000E94AD0E0E943C0F0E94AD0EAEE3B4E006
:10121C000E94780F2FEF3FEFA2E30E94AD0FA1F1D8
:10122C00332322F02A30E0E03E070CF026C0229750
:10123C000E94090F0E94540FF9010E940D0FFE012C
:10124C0038960E94F70E0E94470C0E94AD0EE6E005
:10125C000E94590F0E946B0F2FEF3FEFEC85FD851D
:10126C003196EC87FD870E94AD0EAC85BD8513973A
:10127C0011F422960AC0229607C00E948B0F09F423
:10128C0071C00E94900F09F0C7CFDE0116960E9424
:10129C00200EAF01103049F10E94C50F4E175F07A9
:1012AC008CF00E94B40E0E94B10E0E94F20EAFE4BC
:1012BC00B4E00E94780F0E943C0FACE5B4E00E94B1
:1012CC00660F10C040933E0550933F050E94B40E2C
:1012DC000E94B10E0E94F20EADE6B4E00E94090C21
:1012EC00A8ECB0E00E940B103DC00E94C00FE417A8
:1012FC00F5078CF00E94B40E0E94B10E0E94F20E03
:10130C00AEE7B4E00E94200F0E943C0FABE8B4E0C3
:10131C000E94660F25C04536E0E05E078CF00E9407
:10132C00330F0E94CA0F0E94F20EADE9B4E00E9486
:10133C00200F0E943C0FAAEAB4E00E94660F10C076
:10134C0040934005509341050E94330F0E94CA0FF1
:10135C000E94F20EAAEBB4E00E94090CA8ECB0E0DB
:10136C000E940B100E9480112C9608952B970E94BE
:10137C0079110FEF1FEF8820B9F027970E94AD0E5F
:10138C000E94B10EABECB4E00E94780F0E94090FE2
:10139C000E94950F0E94890F0E943C0FA1EDB4E0B2
:1013AC000E949B0F2796EFC0BB2069F00E949E0FF6
:1013BC0039F00E94A70F21F0A881B981129711F47E
:1013CC002296E1C022960E94330F0E94B10E0E9419
:1013DC00F20EA0EEB4E00E94780FA7EEB4E00E94EB
:1013EC00780F0E943C0FA2EFB4E00E94780F0FEF31
:1013FC001FEFE6E0F0E0ED87FE87ED850E94590FC8
:10140C00A3E0B5E00E947B0F8F01EFEFFFEFE01739
:10141C00F10709F4A1C0112322F00A30E0E01E0705
:10142C000CF074C00E944C0F0E94540FF8010E94E3
:10143C000D0F0E94AD0EED850E94590F0E945D0F9D
:10144C000E94AD0E0E94370FDE0118960E94470CC9
:10145C00AD85BE85199779F40E94CD0F9F010E942E
:10146C00370FA5E0B5E00E94580CED85FE8531964E
:10147C00ED87FE8747C0AD85BE851C9709F50E9498
:10148C00CD0FAF010E94370FA6E0B5E00E94580CBB
:10149C004D30E0E05E0774F040E050E0EBE0F0E04F
:1014AC00ED87FE87ED850E94590FA7E0B5E00E94FD
:1014BC00780FA3CFED85FE853196ED87FE8722C090
:1014CC00AD85BE851F97F1F40E94CD0FEF87F88B89
:1014DC000E94370FAAE0B5E00E94580CAF85B8897E
:1014EC005F977CF0E0E0EF87E88BEEE0F0E0ED87D3
:1014FC00FE87ED850E94590FABE0B5E00E94780F96
:10150C007CCF2BC0ED85FE85319624C0EAE0F0E05F
:10151C00E017F107C1F1EBE0F0E0E017F107E1F4BF
:10152C000E94370FAEE0B5E00E94510FAFE0B5E07E
:10153C000E94580C20E030E040E050E0E0E0EF8703
:10154C00E88BE6E00E94590FA0E1B5E00E94780F0D
:10155C00E6E0F0E0ED87FE8750CF2093380530931E
:10156C00390540933A0550933B05EF85F8890E9465
:10157C00DA0E0E94330F0E94CA0F0E94F20EABE1EA
:10158C00B5E00E949B0F0E948011619608951A93FA
:10159C000A93A7E00E94C7028F010E944C110E947F
:1015AC007B10A6EFB8E28CE990E40E94A910DF0151
:1015BC00CB01E0E0F0E060E271E40E94F7100E94E1
:1015CC0044108F01112352F4E1E0E0934405F8013B
:1015DC00AFEFBFEF0E9459118F0103C0E0E0E09321
:1015EC00440500934205109343058AC01A9310E0FA
:1015FC00AE980E94AD0EA0914205B09143050E9499
:10160C00C00FAE17BF0724F49098919811E012C048
:10161C00A0914205B09143050E94C50FEA17FB0744
:10162C0024F49098919A11E005C0909A9198E1E079
:10163C006E2E10E0662011F0103009F407C0969A57
:10164C00A4E6B0E00E940B10969866240E94AD0EA2
:10165C00AE9A199108951A930A930FEF1FEFC4983D
:10166C00B09904C00E94AD0E01E010E0B19904C025
:10167C000E94AD0E02E010E0B39904C00E94AD0EC2
:10168C0003E010E0C49AC598B09904C00E94AD0E56
:10169C0004E010E0B19904C00E94AD0E05E010E02A
:1016AC00B39904C00E94AD0E06E010E0C59AC6982E
:1016BC00B09904C00E94AD0E07E010E0B19904C0CF
:1016CC000E94AD0E08E010E0B39904C00E94AD0E6C
:1016DC0009E010E0C69AC798B09904C00E94AD0EFC
:1016EC000AE010E0B19904C00E94AD0E00E010E0D9
:1016FC00B39904C00E94AD0E0BE010E0C79AF8013C
:10170C000991199108950E94D50278940E9456036C
:10171C00A2E3B0E00E940B100E94ED0EA1E0B0E03D
:10172C000E94AA03A2E3B0E00E940B10E1E0E515D1
:10173C0019F4BCDC55240BC0E1E0E41519F410DC01
:10174C00442405C0E1E0E71529F410DE772434D0F9
:10175C000E94330FDBCFFFCFAA93E5B3E07FAE2F10
:10176C00E881E295EF70EA2BE5BB8DE08A95F1F705
:10177C00AD9A8DE08A95F1F7AD988DE08A95F1F7E9
:10178C007EC0AA93A881E8DFE881E295E883A8816E
:10179C00E3DF85E88A95F1F772C0AA93E881F0E05F
:1017AC00E05AFA4FE081A981AE0FEBDFA980E88106
:1017BC00E093640522960895A2E00E94D10FACE05C
:1017CC00E0DFA1E00E94D10FE0E0E0936405AE2ED3
:1017DC000895AA93A881AA3021F0E0916505AE1670
:1017EC0060F0E0E0EA93A0916405AF5FA09364051C
:1017FC00D4DFA881AA3009F442C0A394AC9AA88182
:10180C00C0DFAC983CC0BA93AA931A93A981BA8151
:10181C00ED91A983BA831E2FE03019F0A12FD9DFE7
:10182C00F5CF188123960895AA93E4B3EF60E4BB37
:10183C00A59AA49AA69AAD98AC98AE98E881E09334
:10184C006505E058E0936205E881E054E093630598
:10185C000E94B40E0E94D70F0E94D70F0E94D70F80
:10186C00A0E27ADF88EC90E00197F1F7A8E289DF3B
:10187C00A4E087DFA5E885DFA6E083DF9DDF219666
:10188C000895BA93AA93E991F991A991B991CD01CF
:10189C006D916623E9F7119761916D936623E1F7DA
:1018AC00FC010895BA93AA93E991F991A991B99180
:1018BC00CD0161916D936623E1F7FC010895BA9314
:1018CC00AA93A991B991EE27FF276D91662311F088
:1018DC003196FBCF0895BA93AA93AA27BB27E99117
:1018EC00F9910590002011F01196FBCFFD010895A0
:1018FC00BA93AA931A930A93AA81BB8112960E9457
:10190C006C11309729F1AA81BB8114960E946C113D
:10191C008F01309761F00230E0E01E0780F0F80193
:10192C0031978F01AA81BB811496ED93FC93AA8108
:10193C00BB8112960E942D0F3197AC81A083AA8196
:10194C00BB810E946C11FF2312F00E942D0F06C068
:10195C00AA81BB81EFEFFFEFED93FC931981088116
:10196C0025960895BA93AA9326970E94791110E0B0
:10197C00AC85BD85E0E0F0E0ED93FC93EA89FB8952
:10198C003196EA8BFB8B3197E4912E2FE03009F4E2
:10199C0015C1E12FE03039F4253211F411E002C009
:1019AC000E94DF0F0AC1E130A9F4253219F40E941C
:1019BC00DF0F02C112E040E000E02D3211F401E033
:1019CC00FCC02B3211F44BE2F8C0203211F440E28F
:1019DC00F4C002C0E23039F450E013E0203311F4CB
:1019EC000068EBC003C0E33009F0E7C0203310F00F
:1019FC002A3308F007C0AAE05A9F502DE22FE0537B
:101A0C005E0FDBC0E22FE33649F40E94E60FE88953
:101A1C00F989A481AA930E94EC0FCEC0E33741F45C
:101A2C000E94E60F0E94F20F0E94650C1E2F0AC046
:101A3C00E03761F40E94E60F0E94F20F0E94710CD5
:101A4C001E2F086002600F7730E034C0E43611F0CE
:101A5C00E93611F4046002C0E53731F4E4E5F0E056
:101A6C00EE83FF8315E00CC0E83511F4086003C069
:101A7C00E83709F0A1C0EEE5F0E0EE83FF8314E057
:101A8C0002FF14C00E94E60F0E94FC0FAB85AA2334
:101A9C003AF4EA85FB850E944011EA87FB874DE208
:101AAC00403011F01F5F01C00B7F04C00E94E60F95
:101ABC000E94FC0F00FD11C0151778F407FF08C039
:101ACC0002FF04C00B7F242F115001C020E301C082
:101ADC0020E20E94DF0F5150EFCF312F01FF17C0D2
:101AEC003030A1F003FF06C0EE81FF812591EE831B
:101AFC00FF8305C0AE81BF812D91AE83BF830E9451
:101B0C00DF0F503009F051503150EACF4BC020E379
:101B1C00EE81FF810E947011E887F987EE81FF81C9
:101B2C003296EE83FF83E885F985AA85BB85AE17CF
:101B3C00BF0750F02F5FA885B985EA85FB85EA1BA6
:101B4C00FB0BEA87FB87EFCF2A3328F003FF02C099
:101B5C00295F01C0295D04FD1AC0213320F4A8853A
:101B6C00B985119709F409C0531710F000FF01C093
:101B7C0013C020E207FF0BC020E3006102FF07C087
:101B8C000B7F4A930E94EC0F503009F051500E9489
:101B9C00DF0F503009F051503150A885B98512979C
:101BAC0008F0B5CF00FF08C0503031F05150E0E2E2
:101BBC00EA930E94EC0FF8CF10E0E0CEAC85BD8527
:101BCC000E946C110E94801164960895FF92F82E69
:101BDC0026970E947B110E940410309719F4EFEFA6
:101BEC00FFEF23C0DE0116960E943C118D010E946E
:101BFC000410EE83FF83E0E0E887E987DE011A96A4
:101C0C000E943C110E946C11FA93EA931A930A9366
:101C1C00EEE7FCE0FA93EA93DE011A96A3DE9F014D
:101C2C00AE81BF81E0E0EC93F9010E9482112A960B
:101C3C00FF900895BA93AA93B981A881EC918A2F49
:101C4C00AE2F0E948E0EA82FEE2311F01196F6CF18
:101C5C00E894EC91ED3211F4689402C0EB3209F483
:101C6C00119666277727EC918A2FAE2F0E94850E4E
:101C7C00A82FEE2379F0FB01660F771F660F771FF5
:101C8C006E0F7F1F660F771FED91FF27E0536E0FCE
:101C9C007F1FE9CFFB011EF4E095F095319622965B
:101CAC000895BA93AA93A991B991E991F9913096B3
:101CBC002AF4E095F09531966DE26D93E89480E10D
:101CCC0097E20DD088EE93E00AD084E6992707D0EE
:101CDC008AE005D06E2F10D066276C930895662786
:101CEC00E817F90720F06395E81BF90BC9F7662391
:101CFC0011F416F008956894605D6D930895AA939D
:101D0C00E1E0F991F03310F0FA3308F0EE27089582
:101D1C00AA93E1E0F991F03229F0F93010F0FE309D
:101D2C0008F0EE2708950A921A92FA926A937A931F
:101D3C008A939A93AA93BA93EA93FA93EFB7EA9396
:101D4C0008950E94E20BA2E3B0E00C940B10AAE001
:101D5C00B0E00C940B100E94E20BF9CFA4E1B0E0C0
:101D6C000C940B10E0915C05F0915D050895EFE784
:101D7C00EDBDEFEFECBD0895E0E0EFBDE4E0EEBDAE
:101D8C00F6CFE0933005F09331050895E0E0F0E0F4
:101D9C00E0933405F09335050895E6E3F5E0A0E013
:101DAC00B0E0A083B1830895E0933C05F0933D052A
:101DBC000895A0E0B0E0A083B1830895E0E0F0E0E6
:101DCC00E0934E05F0934F05E0E5F5E00895E0E073
:101DDC00F0E0FA93EA930895E0E0EA93A0E00C9423
:101DEC00D30BFA93EA93DE01129608950E94570ED4
:101DFC00FE013596F6CFFE013596FA93EA930895D7
:101E0C000E94470CF8CFFE01FA93EA9308950E94C2
:101E1C004C110E94741184E00E94EC0D28960895D8
:101E2C000E94570EFE013296DCCFFE013296FA93D9
:101E3C00EA9308950E94090C91CF0E946C11EE5AFE
:101E4C00FA4FE081EBBBA1E0B0E00C940B10ED91EC
:101E5C00FD913196FE93EE930895AEE1B0E00C94B3
:101E6C000B10FE013896FA93EA930895E0E0EA939A
:101E7C00A1E00C94D30B0E94580CDE0118960C9424
:101E8C00090CEE8DEA93A0E00C94D30BFE01369670
:101E9C00FA93EA9308950E94580CF8CFEDE9F0E01C
:101EAC00FA93EA930895EA93A0E00C94D30BDE0125
:101EBC0016960C94090CFE017996FA93EA93089500
:101ECC000E94090CACE2B1E00895DE0118960E9464
:101EDC00090C3DCFA8ECB0E00C940B10AFE0B0E0D7
:101EEC000C940B100E94090C32CF0E94090CA2E337
:101EFC00B0E00E940B100C94310B9F01EFEFFFEF41
:101F0C00E217F3070895DE01EDCFEAE0F0E0E21707
:101F1C00F3070895EBE0F0E0E217F3070895EFE51F
:101F2C00F1E0FA93EA931EDF72CF0E94090CD2CF34
:101F3C0022970E94BD04E883F983A881B981109788
:101F4C000895A881B981AF3FEFEFBE070895B0E0C7
:101F5C000E940B100E94310BD0CFE1E0F0E0E217B1
:101F6C00F3070895A0E0B0E00E94AA03E0914505B4
:101F7C00E0300895E0913E05F0913F050895E09121
:101F8C004005F091410508950E94E20B66CFDE01F9
:101F9C0018960C94200E0E94C70BA3E0B0E00C9492
:101FAC000B10A0E30E94B20B88EC90E00197F1F7C4
:101FBC0008952A93AD85BE85EF85F8890995089516
:101FCC00E889F9893497E88BF98B0895AD85BE853E
:101FDC00EF85F88909950895A889B98914960E9406
:101FEC006C11EE83FF83AE81BF810895A889B989F6
:101FFC0014960E946C11EA87FB870895DE011C96EB
:10200C000E943C110E946C110895109639F080EDDD
:10201C0097E00197F1F7A8951197C9F70895552303
:10202C0042F4503811F4E0FF04C03196691F791F57
:10203C006BF050E8572711F45F9373C05F3F31F09A
:10204C00660F000C57956795752F08955F930020C8
:10205C000AF073C06CC050E8192E1522880F991F16
:10206C009527550F879550E8072E0522660F771F89
:10207C007527550F67950895689401C0E8945F9390
:10208C00F2DF703818F07F3F08F44BC056E1571B55
:10209C00AAF4519558300EF4593030F0EFEFFFEFB1
:1020AC006FEF7FE777F91AC077275523B9F0EE0F5A
:1020BC00FF1F661F771F5A95D1F710C0772758302E
:1020CC0028F0EF2FF62F672F5850F9CF552331F00A
:1020DC0076956795F795E7955A95D1F700200AF410
:1020EC00CDD05F910895689401C0E894309760401A
:1020FC007040B1F0002426F0772312F40094BED087
:10210C00172E7EE1112032F07A95EE0FFF1F661F1D
:10211C00111CF9CFEF2FF62F612D5F938ADF5F91A2
:10212C000895EE27FF27662777275F910895EFEF35
:10213C00FFEF6FE77FEF5F910895EFEFFFEF6FE732
:10214C007FE75F9108955F9386DF703851F3903885
:10215C0041F301240894791F23F41CF300203AF373
:10216C00ECCF0F921F932F933F934F93112722275E
:10217C009927689FA0018F9F302D410D591F6B9F90
:10218C00300D411D591F8E9F27D0BF9F25D06A9FB0
:10219C0023D0BE9F1DD0AF9F1BD0AE9F110D291F0A
:1021AC00391F491F591FE32FF42F652F522F4F91C1
:1021BC003F912F911F910F9066232AF0550FEE1F20
:1021CC00FF1F661F02C073954BF229DF5F910895C4
:1021DC00100D211D391F02C0200D311D491F591F23
:1021EC0008955F9338DF703821F411200AF49FCFE3
:1021FC00A4CF903809F495CF01240894970B1BF4C5
:10220C00D4F30020F3CF792F1F932F933F934F9349
:10221C0011241127222733274427552790E2AE1784
:10222C00BF078607410730F0AE1BBF0B860B410B77
:10223C00089401C08894551F221F331F111CAA1F1C
:10224C00BB1F881F441F9A9551F7F901612D4F91BF
:10225C003F912F911F91662332F0550FEE1FFF1FF8
:10226C00661F7A9543F2DBDE5F9108950024AF0D73
:10227C00B01D0895F195E195F0400895F0956095A5
:10228C007095E195FF4F6F4F7F4F08956F2F660F3D
:10229C00660B762F0895FA9FF02DEB9FF00DEA9FB9
:1022AC00E02DF10D089504D0F6DF0EF4E3DF089570
:1022BC00E894F7FF02C0DEDF6894B7FF06C0A09574
:1022CC00B095119600F8039400FA0895ED91FC91E5
:1022DC00119708950590F491E02D08957A936A93DF
:1022EC00FA93EA9308955A934A933A932A931A933A
:1022FC000A9308955D814C813B812A811981088163
:10230C000895AC0FBD1F05900D928A95E1F70895C5
:00000001FF
